{
  "_format": "hh-sol-artifact-1",
  "contractName": "VerifiableDraws",
  "sourceName": "contracts/VerifiableDraws.sol",
  "abi": [
    {
      "inputs": [],
      "name": "acceptOwnership",
      "outputs": [],
      "stateMutability": "nonpayable",
      "type": "function"
    },
    {
      "inputs": [
        {
          "internalType": "uint64",
          "name": "subscriptionId",
          "type": "uint64"
        }
      ],
      "stateMutability": "nonpayable",
      "type": "constructor"
    },
    {
      "inputs": [
        {
          "internalType": "string",
          "name": "cid",
          "type": "string"
        }
      ],
      "name": "DrawDoesNotExist",
      "type": "error"
    },
    {
      "inputs": [
        {
          "internalType": "string",
          "name": "cid",
          "type": "string"
        }
      ],
      "name": "DrawTooEarly",
      "type": "error"
    },
    {
      "inputs": [
        {
          "internalType": "address",
          "name": "have",
          "type": "address"
        },
        {
          "internalType": "address",
          "name": "want",
          "type": "address"
        }
      ],
      "name": "OnlyCoordinatorCanFulfill",
      "type": "error"
    },
    {
      "anonymous": false,
      "inputs": [
        {
          "indexed": false,
          "internalType": "string",
          "name": "cid",
          "type": "string"
        },
        {
          "indexed": false,
          "internalType": "bytes",
          "name": "extractedEntropy",
          "type": "bytes"
        }
      ],
      "name": "DrawCompleted",
      "type": "event"
    },
    {
      "anonymous": false,
      "inputs": [
        {
          "indexed": false,
          "internalType": "string",
          "name": "cid",
          "type": "string"
        },
        {
          "indexed": false,
          "internalType": "uint64",
          "name": "publishedAt",
          "type": "uint64"
        },
        {
          "indexed": false,
          "internalType": "uint64",
          "name": "scheduledAt",
          "type": "uint64"
        },
        {
          "indexed": false,
          "internalType": "uint32",
          "name": "entropyNeeded",
          "type": "uint32"
        }
      ],
      "name": "DrawLaunched",
      "type": "event"
    },
    {
      "anonymous": false,
      "inputs": [
        {
          "indexed": false,
          "internalType": "string[]",
          "name": "performData",
          "type": "string[]"
        }
      ],
      "name": "DrawsTriggered",
      "type": "event"
    },
    {
      "inputs": [
        {
          "internalType": "string",
          "name": "cid",
          "type": "string"
        },
        {
          "internalType": "uint64",
          "name": "scheduledAt",
          "type": "uint64"
        },
        {
          "internalType": "uint32",
          "name": "entropyNeeded",
          "type": "uint32"
        }
      ],
      "name": "launchDraw",
      "outputs": [],
      "stateMutability": "nonpayable",
      "type": "function"
    },
    {
      "anonymous": false,
      "inputs": [
        {
          "indexed": true,
          "internalType": "address",
          "name": "from",
          "type": "address"
        },
        {
          "indexed": true,
          "internalType": "address",
          "name": "to",
          "type": "address"
        }
      ],
      "name": "OwnershipTransferRequested",
      "type": "event"
    },
    {
      "anonymous": false,
      "inputs": [
        {
          "indexed": true,
          "internalType": "address",
          "name": "from",
          "type": "address"
        },
        {
          "indexed": true,
          "internalType": "address",
          "name": "to",
          "type": "address"
        }
      ],
      "name": "OwnershipTransferred",
      "type": "event"
    },
    {
      "inputs": [
        {
          "internalType": "bytes",
          "name": "performData",
          "type": "bytes"
        }
      ],
      "name": "performUpkeep",
      "outputs": [],
      "stateMutability": "nonpayable",
      "type": "function"
    },
    {
      "inputs": [
        {
          "internalType": "uint256",
          "name": "requestId",
          "type": "uint256"
        },
        {
          "internalType": "uint256[]",
          "name": "randomWords",
          "type": "uint256[]"
        }
      ],
      "name": "rawFulfillRandomWords",
      "outputs": [],
      "stateMutability": "nonpayable",
      "type": "function"
    },
    {
      "anonymous": false,
      "inputs": [
        {
          "indexed": false,
          "internalType": "uint256",
          "name": "requestId",
          "type": "uint256"
        },
        {
          "indexed": false,
          "internalType": "uint256[]",
          "name": "randomWords",
          "type": "uint256[]"
        }
      ],
      "name": "RequestFulfilled",
      "type": "event"
    },
    {
      "anonymous": false,
      "inputs": [
        {
          "indexed": false,
          "internalType": "uint256",
          "name": "requestId",
          "type": "uint256"
        },
        {
          "indexed": false,
          "internalType": "string[]",
          "name": "cids",
          "type": "string[]"
        },
        {
          "indexed": false,
          "internalType": "uint32",
          "name": "numWords",
          "type": "uint32"
        },
        {
          "indexed": false,
          "internalType": "bytes32",
          "name": "keyHash",
          "type": "bytes32"
        },
        {
          "indexed": false,
          "internalType": "uint64",
          "name": "s_subscriptionId",
          "type": "uint64"
        },
        {
          "indexed": false,
          "internalType": "uint16",
          "name": "requestConfirmations",
          "type": "uint16"
        },
        {
          "indexed": false,
          "internalType": "uint32",
          "name": "callbackGasLimit",
          "type": "uint32"
        }
      ],
      "name": "RequestSent",
      "type": "event"
    },
    {
      "inputs": [
        {
          "internalType": "uint64",
          "name": "subscriptionId",
          "type": "uint64"
        }
      ],
      "name": "setSubscription",
      "outputs": [],
      "stateMutability": "nonpayable",
      "type": "function"
    },
    {
      "inputs": [
        {
          "internalType": "address",
          "name": "to",
          "type": "address"
        }
      ],
      "name": "transferOwnership",
      "outputs": [],
      "stateMutability": "nonpayable",
      "type": "function"
    },
    {
      "inputs": [
        {
          "internalType": "bytes",
          "name": "",
          "type": "bytes"
        }
      ],
      "name": "checkUpkeep",
      "outputs": [
        {
          "internalType": "bool",
          "name": "upkeepNeeded",
          "type": "bool"
        },
        {
          "internalType": "bytes",
          "name": "performData",
          "type": "bytes"
        }
      ],
      "stateMutability": "view",
      "type": "function"
    },
    {
      "inputs": [
        {
          "internalType": "string",
          "name": "cid",
          "type": "string"
        }
      ],
      "name": "getRandomnessForDraw",
      "outputs": [
        {
          "internalType": "bytes",
          "name": "",
          "type": "bytes"
        }
      ],
      "stateMutability": "view",
      "type": "function"
    },
    {
      "inputs": [
        {
          "internalType": "uint256",
          "name": "_requestId",
          "type": "uint256"
        }
      ],
      "name": "getRequestStatus",
      "outputs": [
        {
          "internalType": "bool",
          "name": "fulfilled",
          "type": "bool"
        },
        {
          "internalType": "uint256[]",
          "name": "randomWords",
          "type": "uint256[]"
        }
      ],
      "stateMutability": "view",
      "type": "function"
    },
    {
      "inputs": [],
      "name": "owner",
      "outputs": [
        {
          "internalType": "address",
          "name": "",
          "type": "address"
        }
      ],
      "stateMutability": "view",
      "type": "function"
    },
    {
      "inputs": [
        {
          "internalType": "uint256",
          "name": "",
          "type": "uint256"
        }
      ],
      "name": "s_requests",
      "outputs": [
        {
          "internalType": "bool",
          "name": "exists",
          "type": "bool"
        },
        {
          "internalType": "bool",
          "name": "fulfilled",
          "type": "bool"
        }
      ],
      "stateMutability": "view",
      "type": "function"
    }
  ],
  "bytecode": "0x60a0604052600680546001600160a01b0319908116737a1bac17ccc5b313516c5e16fb24f7659aa5ebed179091556007805490911673326c977e6efc84e512bb9c30f76e30c160ed06fb1790557f4b09e658ed251bcafeebbc69400383d49f344ace09b9576fe248bb02c003fe9f600855600980546c03000f4240000000000000000065ffffffffffff60401b19909116179055348015620000a057600080fd5b5060405162001da238038062001da2833981016040819052620000c39162000253565b6006546001600160a01b03166080523380600081620001295760405162461bcd60e51b815260206004820152601860248201527f43616e6e6f7420736574206f776e657220746f207a65726f000000000000000060448201526064015b60405180910390fd5b600080546001600160a01b0319166001600160a01b03848116919091179091558116156200015c576200015c81620001a8565b5050600654600580546001600160a01b0319166001600160a01b0390921691909117905550600980546001600160401b039092166001600160401b031990921691909117905562000285565b336001600160a01b03821603620002025760405162461bcd60e51b815260206004820152601760248201527f43616e6e6f74207472616e7366657220746f2073656c66000000000000000000604482015260640162000120565b600180546001600160a01b0319166001600160a01b0383811691821790925560008054604051929316917fed8889f560326eb138920d842192f0eb3dd22b4f139c87a2c57538e05bae12789190a350565b6000602082840312156200026657600080fd5b81516001600160401b03811681146200027e57600080fd5b9392505050565b608051611afa620002a86000396000818161029001526102d20152611afa6000f3fe608060405234801561001057600080fd5b50600436106100a95760003560e01c80636e04ff0d116100715780636e04ff0d1461012557806379ba5097146101465780638da5cb5b1461014e578063a168fa8914610169578063d8a4676f146101ac578063f2fde38b146101cd57600080fd5b806309681abe146100ae5780631fe543e3146100d75780632e648083146100ec57806330ed9d3e146100ff5780634585e33b14610112575b600080fd5b6100c16100bc36600461134d565b6101e0565b6040516100ce91906113ac565b60405180910390f35b6100ea6100e5366004611428565b610285565b005b6100ea6100fa3660046114e5565b610312565b6100ea61010d36600461152e565b610500565b6100ea610120366004611549565b61052b565b610138610133366004611549565b610651565b6040516100ce9291906115ba565b6100ea6108af565b6000546040516001600160a01b0390911681526020016100ce565b61019561017736600461134d565b60046020526000908152604090205460ff8082169161010090041682565b6040805192151583529015156020830152016100ce565b6101bf6101ba36600461134d565b610959565b6040516100ce929190611618565b6100ea6101db366004611633565b610aa0565b600081815260026020526040902060030180546060919061020090611663565b80601f016020809104026020016040519081016040528092919081815260200182805461022c90611663565b80156102795780601f1061024e57610100808354040283529160200191610279565b820191906000526020600020905b81548152906001019060200180831161025c57829003601f168201915b50505050509050919050565b336001600160a01b037f000000000000000000000000000000000000000000000000000000000000000016146103045760405163073e64fd60e21b81523360048201526001600160a01b037f00000000000000000000000000000000000000000000000000000000000000001660248201526044015b60405180910390fd5b61030e8282610ab4565b5050565b61031a610d95565b6000838152600260205260409020546001600160401b0316156103755760405162461bcd60e51b81526020600482015260136024820152724472617720616c72656164792065786973747360681b60448201526064016102fb565b60408051602080820183526000808352835160e0810185526001600160401b0343818116835288821683860190815283880185815263ffffffff808b16606087019081526080870188815260a088018b815260c089018a90528f8a5260029a8b90529b89208851815496518916600160401b026fffffffffffffffffffffffffffffffff199097169816979097179490941786559151600186015590519684018054925115156401000000000264ffffffffff1990931697909116969096171790945594519294919392909190600382019061045190826116ec565b5060c091909101516004909101805460ff1916911515919091179055600380546001810182556000919091527fc2575a0e9e593c00f959f8c92f12db2869c3395a3b0502d05e2516446f71f85b01869055604080518781526001600160401b03858116602083015287168183015263ffffffff8616606082015290517f7a55a1fe1d1a20861e0899a2fa35239259992575ca683daaa07fccfe59ac278d916080908290030190a1505050505050565b610508610d95565b6009805467ffffffffffffffff19166001600160401b0392909216919091179055565b6000610539828401846117ab565b905060005b8151816001600160401b0316101561060a57600082826001600160401b03168151811061056d5761056d61183b565b6020908102919091018101516000818152600290925260408220549092506001600160401b031690036105b657604051633d01b9ed60e01b8152600481018290526024016102fb565b600081815260026020526040902054600160401b90046001600160401b03164210156105f75760405162dcd9ef60e11b8152600481018290526024016102fb565b508061060281611867565b91505061053e565b507f4d314a3198e60f9882cd5d288259ef8d0296fc80510aa8c16a86a1392e53f5478160405161063a919061188d565b60405180910390a161064b81610dea565b50505050565b60035460009060609082906001600160401b03811115610673576106736113bf565b60405190808252806020026020018201604052801561069c578160200160208202803683370190505b5090506000805b6003546001600160401b03821610156107855760006003826001600160401b0316815481106106d4576106d461183b565b600091825260208083209091015480835260029091526040909120549091506001600160401b03600160401b90910416421080159061072e575060008181526002602081905260409091200154640100000000900460ff16155b15610772578561073d57600195505b8084836001600160401b0316815181106107595761075961183b565b60209081029190910101528261076e816118a0565b9350505b508061077d81611867565b9150506106a3565b5083156108a6576000808263ffffffff166001600160401b038111156107ad576107ad6113bf565b6040519080825280602002602001820160405280156107d6578160200160208202803683370190505b50905060005b8451816001600160401b031610156108805784816001600160401b0316815181106108095761080961183b565b60200260200101516000801b1461086e5784816001600160401b0316815181106108355761083561183b565b6020026020010151828463ffffffff16815181106108555761085561183b565b60209081029190910101528261086a816118a0565b9350505b8061087881611867565b9150506107dc565b5080604051602001610892919061188d565b604051602081830303815290604052945050505b50509250929050565b6001546001600160a01b031633146109025760405162461bcd60e51b815260206004820152601660248201527526bab9ba10313290383937b837b9b2b21037bbb732b960511b60448201526064016102fb565b60008054336001600160a01b0319808316821784556001805490911690556040516001600160a01b0390921692909183917f8be0079c531659141344cd1fd0a4f28419497f9722a3daafe3b4186f6b6457e091a350565b60008181526004602052604081205460609060ff166109ae5760405162461bcd60e51b81526020600482015260116024820152701c995c5d595cdd081b9bdd08199bdd5b99607a1b60448201526064016102fb565b60008381526004602090815260408083208151608081018352815460ff8082161515835261010090910416151581850152600182018054845181870281018701865281815292959394860193830182828015610a2957602002820191906000526020600020905b815481526020019060010190808311610a15575b5050505050815260200160028201805480602002602001604051908101604052809291908181526020018280548015610a8157602002820191906000526020600020905b815481526020019060010190808311610a6d575b5050505050815250509050806020015181604001519250925050915091565b610aa8610d95565b610ab18161107e565b50565b60008281526004602090815260408083208151608081018352815460ff8082161515835261010090910416151581850152600182018054845181870281018701865281815292959394860193830182828015610b2f57602002820191906000526020600020905b815481526020019060010190808311610b1b575b5050505050815260200160028201805480602002602001604051908101604052809291908181526020018280548015610b8757602002820191906000526020600020905b815481526020019060010190808311610b73575b50505050508152505090508060000151610bd75760405162461bcd60e51b81526020600482015260116024820152701c995c5d595cdd081b9bdd08199bdd5b99607a1b60448201526064016102fb565b600160208201526040808201839052517ffe2e2d779dba245964d4e3ef9b994be63856fd568bf7d3ca9e224755cb1bd54d90610c1690859085906118b9565b60405180910390a1600082604051602001610c3191906118d2565b604051602081830303815290604052905060008060005b846060015151816001600160401b03161015610d8c5760008560600151826001600160401b031681518110610c7f57610c7f61183b565b60209081029190910181015160008181526002909252604082206004015490925060ff1615159003610d795760008181526002602081905260408220015463ffffffff169350610cd0868686611127565b6000838152600260205260409020909150600301610cee82826116ec565b506000828152600260205260409020436001808301919091556004909101805460ff19169091179055610d218486611908565b9450610d2c8261120c565b6000828152600260205260409081902090517f0a45297cfbea61d8b9d4378977c2d407731c8b184821f724c1804343a5a5629091610d6f9185916003019061192c565b60405180910390a1505b5080610d8481611867565b915050610c48565b50505050505050565b6000546001600160a01b03163314610de85760405162461bcd60e51b815260206004820152601660248201527527b7363c9031b0b63630b1363290313c9037bbb732b960511b60448201526064016102fb565b565b600080805b8351816001600160401b03161015610eb4576002600085836001600160401b031681518110610e2057610e2061183b565b602090810291909101810151825281019190915260400160002060020154610e4e9063ffffffff1683611908565b915060016002600086846001600160401b031681518110610e7157610e7161183b565b6020026020010151815260200190815260200160002060020160046101000a81548160ff0219169083151502179055508080610eac90611867565b915050610def565b5060206000610ec383836112c1565b6005546008546009546040516305d3b1d360e41b815260048101929092526001600160401b0381166024830152600160601b810461ffff166044830152600160401b900463ffffffff9081166064830152831660848201529192506001600160a01b031690635d3b1d309060a4016020604051808303816000875af1158015610f50573d6000803e3d6000fd5b505050506040513d601f19601f82011682018060405250810190610f7491906119bf565b6040805160808101825260018082526000602080840182815285518381528083018752858701908152606086018d9052878452600483529590922084518154935161ffff1990941690151561ff00191617610100931515939093029290921782559351805195995092949093610fef939285019201906112ed565b506060820151805161100b9160028401916020909101906112ed565b50506008546009546040517f7bf4f10eb7403ca918ca3f21b5734092445676bcb9d7dc2ad43fef1d6bb17a7e935061106e9288928a928792916001600160401b03811691600160601b820461ffff1691600160401b900463ffffffff16906119d8565b60405180910390a1505050919050565b336001600160a01b038216036110d65760405162461bcd60e51b815260206004820152601760248201527f43616e6e6f74207472616e7366657220746f2073656c6600000000000000000060448201526064016102fb565b600180546001600160a01b0319166001600160a01b0383811691821790925560008054604051929316917fed8889f560326eb138920d842192f0eb3dd22b4f139c87a2c57538e05bae12789190a350565b606060008263ffffffff166001600160401b03811115611149576111496113bf565b6040519080825280601f01601f191660200182016040528015611173576020820181803683370190505b50905060005b6111838585611908565b63ffffffff168163ffffffff16101561120357856111a18683611908565b63ffffffff16815181106111b7576111b761183b565b602001015160f81c60f81b828263ffffffff16815181106111da576111da61183b565b60200101906001600160f81b031916908160001a905350806111fb816118a0565b915050611179565b50949350505050565b60005b60035481101561030e57816003828154811061122d5761122d61183b565b9060005260206000200154036112af576003805461124d90600190611a34565b8154811061125d5761125d61183b565b90600052602060002001546003828154811061127b5761127b61183b565b600091825260209091200155600380548061129857611298611a47565b600190038181906000526020600020016000905590555b806112b981611a5d565b91505061120f565b60008160016112d08286611908565b6112da9190611a76565b6112e49190611a93565b90505b92915050565b828054828255906000526020600020908101928215611328579160200282015b8281111561132857825182559160200191906001019061130d565b50611334929150611338565b5090565b5b808211156113345760008155600101611339565b60006020828403121561135f57600080fd5b5035919050565b6000815180845260005b8181101561138c57602081850181015186830182015201611370565b506000602082860101526020601f19601f83011685010191505092915050565b6020815260006112e46020830184611366565b634e487b7160e01b600052604160045260246000fd5b604051601f8201601f191681016001600160401b03811182821017156113fd576113fd6113bf565b604052919050565b60006001600160401b0382111561141e5761141e6113bf565b5060051b60200190565b6000806040838503121561143b57600080fd5b823591506020808401356001600160401b0381111561145957600080fd5b8401601f8101861361146a57600080fd5b803561147d61147882611405565b6113d5565b81815260059190911b8201830190838101908883111561149c57600080fd5b928401925b828410156114ba578335825292840192908401906114a1565b80955050505050509250929050565b80356001600160401b03811681146114e057600080fd5b919050565b6000806000606084860312156114fa57600080fd5b8335925061150a602085016114c9565b9150604084013563ffffffff8116811461152357600080fd5b809150509250925092565b60006020828403121561154057600080fd5b6112e4826114c9565b6000806020838503121561155c57600080fd5b82356001600160401b038082111561157357600080fd5b818501915085601f83011261158757600080fd5b81358181111561159657600080fd5b8660208285010111156115a857600080fd5b60209290920196919550909350505050565b82151581526040602082015260006115d56040830184611366565b949350505050565b600081518084526020808501945080840160005b8381101561160d578151875295820195908201906001016115f1565b509495945050505050565b82151581526040602082015260006115d560408301846115dd565b60006020828403121561164557600080fd5b81356001600160a01b038116811461165c57600080fd5b9392505050565b600181811c9082168061167757607f821691505b60208210810361169757634e487b7160e01b600052602260045260246000fd5b50919050565b601f8211156116e757600081815260208120601f850160051c810160208610156116c45750805b601f850160051c820191505b818110156116e3578281556001016116d0565b5050505b505050565b81516001600160401b03811115611705576117056113bf565b611719816117138454611663565b8461169d565b602080601f83116001811461174e57600084156117365750858301515b600019600386901b1c1916600185901b1785556116e3565b600085815260208120601f198616915b8281101561177d5788860151825594840194600190910190840161175e565b508582101561179b5787850151600019600388901b60f8161c191681555b5050505050600190811b01905550565b600060208083850312156117be57600080fd5b82356001600160401b038111156117d457600080fd5b8301601f810185136117e557600080fd5b80356117f361147882611405565b81815260059190911b8201830190838101908783111561181257600080fd5b928401925b8284101561183057833582529284019290840190611817565b979650505050505050565b634e487b7160e01b600052603260045260246000fd5b634e487b7160e01b600052601160045260246000fd5b60006001600160401b0380831681810361188357611883611851565b6001019392505050565b6020815260006112e460208301846115dd565b600063ffffffff80831681810361188357611883611851565b8281526040602082015260006115d560408301846115dd565b815160009082906020808601845b838110156118fc578151855293820193908201906001016118e0565b50929695505050505050565b63ffffffff81811683821601908082111561192557611925611851565b5092915050565b828152600060206040818401526000845461194681611663565b80604087015260606001808416600081146119685760018114611982576119b0565b60ff1985168984015283151560051b8901830195506119b0565b896000528660002060005b858110156119a85781548b820186015290830190880161198d565b8a0184019650505b50939998505050505050505050565b6000602082840312156119d157600080fd5b5051919050565b87815260e0602082015260006119f160e08301896115dd565b905063ffffffff80881660408401528660608401526001600160401b038616608084015261ffff851660a084015280841660c08401525098975050505050505050565b818103818111156112e7576112e7611851565b634e487b7160e01b600052603160045260246000fd5b600060018201611a6f57611a6f611851565b5060010190565b63ffffffff82811682821603908082111561192557611925611851565b600063ffffffff80841680611ab857634e487b7160e01b600052601260045260246000fd5b9216919091049291505056fea2646970667358221220910b25bbff6ebde8ef16086518ab65b7593bdc6ff8a260a36f2df2eb904c580264736f6c63430008130033",
  "linkReferences": {},
  "deployedLinkReferences": {}
}